:060000001D20462001282E
:10000800C000030EC1000B198C200B189520410E5F
:060018008300400E090008
:10003A0007309F0003138316F030860085010730CE
:10004A008100831216308100A8308B00C101C001E3
:10005A00850186018030A0000830A1000430A2008A
:10006A000230A3000130A4004330B1002230B200B4
:10007A001130B3000930B4000530B5000230B600C3
:10008A000800A61C4F28A61064200008303E8400F1
:10009A0000088500261C08002610A70A2708053A2A
:1000AA00031D0800A701A80A2808063A031D5E28AE
:1000BA00A8012808203E84000008850008000B10CB
:1000CA008B11060E7620003E8000872086010608E6
:1000DA000F3A7620003E8000872086080B108B1589
:1000EA0008008207143400340334143406341434F8
:1000FA0014340434093414341434033414340234F4
:10010A0001341434031383168609831208000B1171
:10011A0016308100F8308105073081042614080062
:08012A0086080B10A614080062
:02400E00583F19
:00000001FF
