:060000001D203320012841
:10000800C0000308C1000B190B11633081003414C0
:080018004108830040080900C3
:10003A0003138316F0308600850084308100831212
:10004A005D2063308100A0308B0086018501A0010C
:10005A00A101B701B401B801B9010800341C332861
:10006A0034104C20B80A3808C83A031D3328B8019E
:10007A003F200800A00A20080A3A031D0800A00130
:10008A00A10A21080A3A031D0800A1010800B70ABB
:10009A003708023A031DB7013708203E84000008DA
:1000AA00B9003008373E8400000839048600080089
:0A00BA001030B0082030B108080033
:02400E00583F19
:00000001FF
